{
  "contractName": "RealEstate",
  "abi": [
    {
      "anonymous": false,
      "inputs": [
        {
          "indexed": false,
          "internalType": "uint256",
          "name": "propertyId",
          "type": "uint256"
        },
        {
          "indexed": false,
          "internalType": "string",
          "name": "location",
          "type": "string"
        },
        {
          "indexed": false,
          "internalType": "uint256",
          "name": "price",
          "type": "uint256"
        },
        {
          "indexed": false,
          "internalType": "address",
          "name": "owner",
          "type": "address"
        },
        {
          "indexed": false,
          "internalType": "string",
          "name": "propertyName",
          "type": "string"
        }
      ],
      "name": "NewProperty",
      "type": "event"
    },
    {
      "anonymous": false,
      "inputs": [
        {
          "indexed": false,
          "internalType": "uint256",
          "name": "propertyId",
          "type": "uint256"
        },
        {
          "indexed": false,
          "internalType": "address",
          "name": "previousOwner",
          "type": "address"
        },
        {
          "indexed": false,
          "internalType": "address",
          "name": "newOwner",
          "type": "address"
        }
      ],
      "name": "TransferProperty",
      "type": "event"
    },
    {
      "inputs": [
        {
          "internalType": "uint256",
          "name": "",
          "type": "uint256"
        }
      ],
      "name": "properties",
      "outputs": [
        {
          "internalType": "string",
          "name": "location",
          "type": "string"
        },
        {
          "internalType": "uint256",
          "name": "price",
          "type": "uint256"
        },
        {
          "internalType": "address",
          "name": "owner",
          "type": "address"
        },
        {
          "internalType": "bool",
          "name": "isForSale",
          "type": "bool"
        },
        {
          "internalType": "string",
          "name": "image",
          "type": "string"
        },
        {
          "internalType": "string",
          "name": "propertyName",
          "type": "string"
        }
      ],
      "stateMutability": "view",
      "type": "function",
      "constant": true
    },
    {
      "inputs": [],
      "name": "propertyCounter",
      "outputs": [
        {
          "internalType": "uint256",
          "name": "",
          "type": "uint256"
        }
      ],
      "stateMutability": "view",
      "type": "function",
      "constant": true
    },
    {
      "inputs": [
        {
          "internalType": "string",
          "name": "_location",
          "type": "string"
        },
        {
          "internalType": "uint256",
          "name": "_price",
          "type": "uint256"
        },
        {
          "internalType": "string",
          "name": "_image",
          "type": "string"
        },
        {
          "internalType": "string",
          "name": "_propertyName",
          "type": "string"
        }
      ],
      "name": "addProperty",
      "outputs": [],
      "stateMutability": "nonpayable",
      "type": "function"
    },
    {
      "inputs": [
        {
          "internalType": "uint256",
          "name": "_propertyId",
          "type": "uint256"
        }
      ],
      "name": "buyProperty",
      "outputs": [],
      "stateMutability": "payable",
      "type": "function",
      "payable": true
    },
    {
      "inputs": [
        {
          "internalType": "uint256",
          "name": "_propertyId",
          "type": "uint256"
        }
      ],
      "name": "changeOwnership",
      "outputs": [],
      "stateMutability": "nonpayable",
      "type": "function"
    }
  ],
  "bytecode": "0x608060405234801561001057600080fd5b506113ad806100206000396000f3fe60806040526004361061004a5760003560e01c80636fa830a61461004f5780639aed57341461006b578063d090e47e14610094578063efda2fca146100bf578063f7b10808146100e8575b600080fd5b61006960048036038101906100649190610c8d565b61012a565b005b34801561007757600080fd5b50610092600480360381019061008d9190610e00565b61051f565b005b3480156100a057600080fd5b506100a96106a3565b6040516100b69190610eca565b60405180910390f35b3480156100cb57600080fd5b506100e660048036038101906100e19190610c8d565b6106a9565b005b3480156100f457600080fd5b5061010f600480360381019061010a9190610c8d565b61099f565b60405161012196959493929190610fc9565b60405180910390f35b60008060008381526020019081526020016000206040518060c00160405290816000820180546101599061106e565b80601f01602080910402602001604051908101604052809291908181526020018280546101859061106e565b80156101d25780601f106101a7576101008083540402835291602001916101d2565b820191906000526020600020905b8154815290600101906020018083116101b557829003601f168201915b50505050508152602001600182015481526020016002820160009054906101000a900473ffffffffffffffffffffffffffffffffffffffff1673ffffffffffffffffffffffffffffffffffffffff1673ffffffffffffffffffffffffffffffffffffffff1681526020016002820160149054906101000a900460ff161515151581526020016003820180546102669061106e565b80601f01602080910402602001604051908101604052809291908181526020018280546102929061106e565b80156102df5780601f106102b4576101008083540402835291602001916102df565b820191906000526020600020905b8154815290600101906020018083116102c257829003601f168201915b505050505081526020016004820180546102f89061106e565b80601f01602080910402602001604051908101604052809291908181526020018280546103249061106e565b80156103715780601f1061034657610100808354040283529160200191610371565b820191906000526020600020905b81548152906001019060200180831161035457829003601f168201915b50505050508152505090506001151581606001511515146103c7576040517f08c379a00000000000000000000000000000000000000000000000000000000081526004016103be906110eb565b60405180910390fd5b8060200151341461040d576040517f08c379a00000000000000000000000000000000000000000000000000000000081526004016104049061117d565b60405180910390fd5b6000816040015190503360008085815260200190815260200160002060020160006101000a81548173ffffffffffffffffffffffffffffffffffffffff021916908373ffffffffffffffffffffffffffffffffffffffff160217905550600080600085815260200190815260200160002060020160146101000a81548160ff0219169083151502179055508073ffffffffffffffffffffffffffffffffffffffff166108fc349081150290604051600060405180830381858888f193505050501580156104de573d6000803e3d6000fd5b507f2b6558ef830032550a63336b01af1ffc1237f803cf24e0d3f632b65b1f3a2521838233604051610512939291906111fc565b60405180910390a1505050565b6001600081548092919061053290611262565b91905055506040518060c001604052808581526020018481526020013373ffffffffffffffffffffffffffffffffffffffff16815260200160011515815260200183815260200182815250600080600154815260200190815260200160002060008201518160000190805190602001906105ad929190610ba0565b506020820151816001015560408201518160020160006101000a81548173ffffffffffffffffffffffffffffffffffffffff021916908373ffffffffffffffffffffffffffffffffffffffff16021790555060608201518160020160146101000a81548160ff021916908315150217905550608082015181600301908051906020019061063b929190610ba0565b5060a0820151816004019080519060200190610658929190610ba0565b509050507fbecdba1edc6ff5eae22b8553566091748216498f96bcd21ca430b90d64dc573e600154858533856040516106959594939291906112aa565b60405180910390a150505050565b60015481565b60008060008381526020019081526020016000206040518060c00160405290816000820180546106d89061106e565b80601f01602080910402602001604051908101604052809291908181526020018280546107049061106e565b80156107515780601f1061072657610100808354040283529160200191610751565b820191906000526020600020905b81548152906001019060200180831161073457829003601f168201915b50505050508152602001600182015481526020016002820160009054906101000a900473ffffffffffffffffffffffffffffffffffffffff1673ffffffffffffffffffffffffffffffffffffffff1673ffffffffffffffffffffffffffffffffffffffff1681526020016002820160149054906101000a900460ff161515151581526020016003820180546107e59061106e565b80601f01602080910402602001604051908101604052809291908181526020018280546108119061106e565b801561085e5780601f106108335761010080835404028352916020019161085e565b820191906000526020600020905b81548152906001019060200180831161084157829003601f168201915b505050505081526020016004820180546108779061106e565b80601f01602080910402602001604051908101604052809291908181526020018280546108a39061106e565b80156108f05780601f106108c5576101008083540402835291602001916108f0565b820191906000526020600020905b8154815290600101906020018083116108d357829003601f168201915b50505050508152505090503373ffffffffffffffffffffffffffffffffffffffff16816040015173ffffffffffffffffffffffffffffffffffffffff161461096d576040517f08c379a000000000000000000000000000000000000000000000000000000000815260040161096490611357565b60405180910390fd5b600160008084815260200190815260200160002060020160146101000a81548160ff0219169083151502179055505050565b60006020528060005260406000206000915090508060000180546109c29061106e565b80601f01602080910402602001604051908101604052809291908181526020018280546109ee9061106e565b8015610a3b5780601f10610a1057610100808354040283529160200191610a3b565b820191906000526020600020905b815481529060010190602001808311610a1e57829003601f168201915b5050505050908060010154908060020160009054906101000a900473ffffffffffffffffffffffffffffffffffffffff16908060020160149054906101000a900460ff1690806003018054610a8f9061106e565b80601f0160208091040260200160405190810160405280929190818152602001828054610abb9061106e565b8015610b085780601f10610add57610100808354040283529160200191610b08565b820191906000526020600020905b815481529060010190602001808311610aeb57829003601f168201915b505050505090806004018054610b1d9061106e565b80601f0160208091040260200160405190810160405280929190818152602001828054610b499061106e565b8015610b965780601f10610b6b57610100808354040283529160200191610b96565b820191906000526020600020905b815481529060010190602001808311610b7957829003601f168201915b5050505050905086565b828054610bac9061106e565b90600052602060002090601f016020900481019282610bce5760008555610c15565b82601f10610be757805160ff1916838001178555610c15565b82800160010185558215610c15579182015b82811115610c14578251825591602001919060010190610bf9565b5b509050610c229190610c26565b5090565b5b80821115610c3f576000816000905550600101610c27565b5090565b6000604051905090565b600080fd5b600080fd5b6000819050919050565b610c6a81610c57565b8114610c7557600080fd5b50565b600081359050610c8781610c61565b92915050565b600060208284031215610ca357610ca2610c4d565b5b6000610cb184828501610c78565b91505092915050565b600080fd5b600080fd5b6000601f19601f8301169050919050565b7f4e487b7100000000000000000000000000000000000000000000000000000000600052604160045260246000fd5b610d0d82610cc4565b810181811067ffffffffffffffff82111715610d2c57610d2b610cd5565b5b80604052505050565b6000610d3f610c43565b9050610d4b8282610d04565b919050565b600067ffffffffffffffff821115610d6b57610d6a610cd5565b5b610d7482610cc4565b9050602081019050919050565b82818337600083830152505050565b6000610da3610d9e84610d50565b610d35565b905082815260208101848484011115610dbf57610dbe610cbf565b5b610dca848285610d81565b509392505050565b600082601f830112610de757610de6610cba565b5b8135610df7848260208601610d90565b91505092915050565b60008060008060808587031215610e1a57610e19610c4d565b5b600085013567ffffffffffffffff811115610e3857610e37610c52565b5b610e4487828801610dd2565b9450506020610e5587828801610c78565b935050604085013567ffffffffffffffff811115610e7657610e75610c52565b5b610e8287828801610dd2565b925050606085013567ffffffffffffffff811115610ea357610ea2610c52565b5b610eaf87828801610dd2565b91505092959194509250565b610ec481610c57565b82525050565b6000602082019050610edf6000830184610ebb565b92915050565b600081519050919050565b600082825260208201905092915050565b60005b83811015610f1f578082015181840152602081019050610f04565b83811115610f2e576000848401525b50505050565b6000610f3f82610ee5565b610f498185610ef0565b9350610f59818560208601610f01565b610f6281610cc4565b840191505092915050565b600073ffffffffffffffffffffffffffffffffffffffff82169050919050565b6000610f9882610f6d565b9050919050565b610fa881610f8d565b82525050565b60008115159050919050565b610fc381610fae565b82525050565b600060c0820190508181036000830152610fe38189610f34565b9050610ff26020830188610ebb565b610fff6040830187610f9f565b61100c6060830186610fba565b818103608083015261101e8185610f34565b905081810360a08301526110328184610f34565b9050979650505050505050565b7f4e487b7100000000000000000000000000000000000000000000000000000000600052602260045260246000fd5b6000600282049050600182168061108657607f821691505b6020821081036110995761109861103f565b5b50919050565b7f546869732070726f7065727479206973206e6f7420666f722073616c652e0000600082015250565b60006110d5601e83610ef0565b91506110e08261109f565b602082019050919050565b60006020820190508181036000830152611104816110c8565b9050919050565b7f596f75206e65656420746f20706179207468652066756c6c207072696365206f60008201527f66207468652070726f70657274792e0000000000000000000000000000000000602082015250565b6000611167602f83610ef0565b91506111728261110b565b604082019050919050565b600060208201905081810360008301526111968161115a565b9050919050565b6000819050919050565b60006111c26111bd6111b884610f6d565b61119d565b610f6d565b9050919050565b60006111d4826111a7565b9050919050565b60006111e6826111c9565b9050919050565b6111f6816111db565b82525050565b60006060820190506112116000830186610ebb565b61121e60208301856111ed565b61122b6040830184610f9f565b949350505050565b7f4e487b7100000000000000000000000000000000000000000000000000000000600052601160045260246000fd5b600061126d82610c57565b91507fffffffffffffffffffffffffffffffffffffffffffffffffffffffffffffffff820361129f5761129e611233565b5b600182019050919050565b600060a0820190506112bf6000830188610ebb565b81810360208301526112d18187610f34565b90506112e06040830186610ebb565b6112ed6060830185610f9f565b81810360808301526112ff8184610f34565b90509695505050505050565b7f6e6f7420796f75722070726f7065727479000000000000000000000000000000600082015250565b6000611341601183610ef0565b915061134c8261130b565b602082019050919050565b6000602082019050818103600083015261137081611334565b905091905056fea2646970667358221220fa282da6c566e829512564bce4f2742c1f671f03766ae56e663d2e9f706c2b4664736f6c634300080d0033",
  "immutableReferences": {},
  "source": "// SPDX-License-Identifier:MIT\r\npragma solidity ^0.8.0;\r\n\r\ncontract RealEstate {\r\n    \r\n    struct Property {\r\n        string location;\r\n        uint256 price;\r\n        address owner;\r\n        bool isForSale;\r\n        string image;\r\n        string propertyName;\r\n    }\r\n    \r\n    mapping (uint256 => Property) public properties;\r\n    uint256 public propertyCounter;\r\n    \r\n    event NewProperty(uint256 propertyId, string location, uint256 price, address owner,string propertyName);\r\n    event TransferProperty(uint256 propertyId, address previousOwner, address newOwner);\r\n    \r\n    function addProperty(string memory _location, uint256 _price, string memory _image,string memory _propertyName) public {\r\n        propertyCounter++;\r\n        properties[propertyCounter] = Property(_location, _price, msg.sender, true, _image,_propertyName);\r\n        emit NewProperty(propertyCounter, _location, _price, msg.sender,_propertyName);\r\n    }\r\n    \r\n    function buyProperty(uint256 _propertyId) public payable {\r\n        Property memory property = properties[_propertyId];\r\n        require(property.isForSale == true, \"This property is not for sale.\");\r\n        require(msg.value == property.price, \"You need to pay the full price of the property.\");\r\n        address payable previousOwner = payable(property.owner);\r\n        properties[_propertyId].owner = msg.sender;\r\n        properties[_propertyId].isForSale = false;\r\n        previousOwner.transfer(msg.value);\r\n        emit TransferProperty(_propertyId, previousOwner, msg.sender);\r\n    }\r\n    function changeOwnership(uint256 _propertyId) public{\r\n        Property memory property = properties[_propertyId];\r\n        require(property.owner ==  msg.sender, \"not your property\");\r\n        properties[_propertyId].isForSale = true;\r\n    }\r\n    \r\n}   \r\n",
  "sourcePath": "C:\\Users\\USER\\Desktop\\Real_Chain\\contracts\\realestate.sol",
  "compiler": {
    "name": "solc",
    "version": "0.8.13+commit.abaa5c0e.Emscripten.clang"
  },
  "schemaVersion": "3.4.14",
  "updatedAt": "2023-05-31T07:57:47.064Z",
  "networkType": "ethereum",
  "devdoc": {
    "kind": "dev",
    "methods": {},
    "version": 1
  },
  "userdoc": {
    "kind": "user",
    "methods": {},
    "version": 1
  }
}