{
  "contractName": "RealEstate",
  "abi": [
    {
      "anonymous": false,
      "inputs": [
        {
          "indexed": false,
          "internalType": "uint256",
          "name": "propertyId",
          "type": "uint256"
        },
        {
          "indexed": false,
          "internalType": "string",
          "name": "location",
          "type": "string"
        },
        {
          "indexed": false,
          "internalType": "uint256",
          "name": "price",
          "type": "uint256"
        },
        {
          "indexed": false,
          "internalType": "address",
          "name": "owner",
          "type": "address"
        }
      ],
      "name": "NewProperty",
      "type": "event"
    },
    {
      "anonymous": false,
      "inputs": [
        {
          "indexed": false,
          "internalType": "uint256",
          "name": "propertyId",
          "type": "uint256"
        },
        {
          "indexed": false,
          "internalType": "address",
          "name": "previousOwner",
          "type": "address"
        },
        {
          "indexed": false,
          "internalType": "address",
          "name": "newOwner",
          "type": "address"
        }
      ],
      "name": "TransferProperty",
      "type": "event"
    },
    {
      "inputs": [
        {
          "internalType": "uint256",
          "name": "",
          "type": "uint256"
        }
      ],
      "name": "properties",
      "outputs": [
        {
          "internalType": "string",
          "name": "location",
          "type": "string"
        },
        {
          "internalType": "uint256",
          "name": "price",
          "type": "uint256"
        },
        {
          "internalType": "address",
          "name": "owner",
          "type": "address"
        },
        {
          "internalType": "bool",
          "name": "isForSale",
          "type": "bool"
        },
        {
          "internalType": "string",
          "name": "image",
          "type": "string"
        }
      ],
      "stateMutability": "view",
      "type": "function",
      "constant": true
    },
    {
      "inputs": [],
      "name": "propertyCounter",
      "outputs": [
        {
          "internalType": "uint256",
          "name": "",
          "type": "uint256"
        }
      ],
      "stateMutability": "view",
      "type": "function",
      "constant": true
    },
    {
      "inputs": [
        {
          "internalType": "string",
          "name": "_location",
          "type": "string"
        },
        {
          "internalType": "uint256",
          "name": "_price",
          "type": "uint256"
        },
        {
          "internalType": "string",
          "name": "_image",
          "type": "string"
        }
      ],
      "name": "addProperty",
      "outputs": [],
      "stateMutability": "nonpayable",
      "type": "function"
    },
    {
      "inputs": [
        {
          "internalType": "uint256",
          "name": "_propertyId",
          "type": "uint256"
        }
      ],
      "name": "buyProperty",
      "outputs": [],
      "stateMutability": "payable",
      "type": "function",
      "payable": true
    }
  ],
  "bytecode": "0x608060405234801561001057600080fd5b50610efe806100206000396000f3fe60806040526004361061003f5760003560e01c80636fa830a614610044578063be7defa314610060578063d090e47e14610089578063f7b10808146100b4575b600080fd5b61005e600480360381019061005991906108a4565b6100f5565b005b34801561006c57600080fd5b5061008760048036038101906100829190610a17565b6104e0565b005b34801561009557600080fd5b5061009e61063e565b6040516100ab9190610ab1565b60405180910390f35b3480156100c057600080fd5b506100db60048036038101906100d691906108a4565b610644565b6040516100ec959493929190610bb0565b60405180910390f35b60008060008381526020019081526020016000206040518060a001604052908160008201805461012490610c40565b80601f016020809104026020016040519081016040528092919081815260200182805461015090610c40565b801561019d5780601f106101725761010080835404028352916020019161019d565b820191906000526020600020905b81548152906001019060200180831161018057829003601f168201915b50505050508152602001600182015481526020016002820160009054906101000a900473ffffffffffffffffffffffffffffffffffffffff1673ffffffffffffffffffffffffffffffffffffffff1673ffffffffffffffffffffffffffffffffffffffff1681526020016002820160149054906101000a900460ff1615151515815260200160038201805461023190610c40565b80601f016020809104026020016040519081016040528092919081815260200182805461025d90610c40565b80156102aa5780601f1061027f576101008083540402835291602001916102aa565b820191906000526020600020905b81548152906001019060200180831161028d57829003601f168201915b5050505050815250509050600115158160600151151514610300576040517f08c379a00000000000000000000000000000000000000000000000000000000081526004016102f790610cbd565b60405180910390fd5b80602001513414610346576040517f08c379a000000000000000000000000000000000000000000000000000000000815260040161033d90610d4f565b60405180910390fd5b60008160400151905033826040019073ffffffffffffffffffffffffffffffffffffffff16908173ffffffffffffffffffffffffffffffffffffffff168152505060008260600190151590811515815250508160008085815260200190815260200160002060008201518160000190805190602001906103c79291906107b7565b506020820151816001015560408201518160020160006101000a81548173ffffffffffffffffffffffffffffffffffffffff021916908373ffffffffffffffffffffffffffffffffffffffff16021790555060608201518160020160146101000a81548160ff02191690831515021790555060808201518160030190805190602001906104559291906107b7565b509050508073ffffffffffffffffffffffffffffffffffffffff166108fc349081150290604051600060405180830381858888f1935050505015801561049f573d6000803e3d6000fd5b507f2b6558ef830032550a63336b01af1ffc1237f803cf24e0d3f632b65b1f3a25218382336040516104d393929190610dce565b60405180910390a1505050565b600160008154809291906104f390610e34565b91905055506040518060a001604052808481526020018381526020013373ffffffffffffffffffffffffffffffffffffffff16815260200160011515815260200182815250600080600154815260200190815260200160002060008201518160000190805190602001906105689291906107b7565b506020820151816001015560408201518160020160006101000a81548173ffffffffffffffffffffffffffffffffffffffff021916908373ffffffffffffffffffffffffffffffffffffffff16021790555060608201518160020160146101000a81548160ff02191690831515021790555060808201518160030190805190602001906105f69291906107b7565b509050507fea21a40ba2b0d33c0d2d4517c396137e5bc0182e8857e048b9a4c007aea0822f6001548484336040516106319493929190610e7c565b60405180910390a1505050565b60015481565b600060205280600052604060002060009150905080600001805461066790610c40565b80601f016020809104026020016040519081016040528092919081815260200182805461069390610c40565b80156106e05780601f106106b5576101008083540402835291602001916106e0565b820191906000526020600020905b8154815290600101906020018083116106c357829003601f168201915b5050505050908060010154908060020160009054906101000a900473ffffffffffffffffffffffffffffffffffffffff16908060020160149054906101000a900460ff169080600301805461073490610c40565b80601f016020809104026020016040519081016040528092919081815260200182805461076090610c40565b80156107ad5780601f10610782576101008083540402835291602001916107ad565b820191906000526020600020905b81548152906001019060200180831161079057829003601f168201915b5050505050905085565b8280546107c390610c40565b90600052602060002090601f0160209004810192826107e5576000855561082c565b82601f106107fe57805160ff191683800117855561082c565b8280016001018555821561082c579182015b8281111561082b578251825591602001919060010190610810565b5b509050610839919061083d565b5090565b5b8082111561085657600081600090555060010161083e565b5090565b6000604051905090565b600080fd5b600080fd5b6000819050919050565b6108818161086e565b811461088c57600080fd5b50565b60008135905061089e81610878565b92915050565b6000602082840312156108ba576108b9610864565b5b60006108c88482850161088f565b91505092915050565b600080fd5b600080fd5b6000601f19601f8301169050919050565b7f4e487b7100000000000000000000000000000000000000000000000000000000600052604160045260246000fd5b610924826108db565b810181811067ffffffffffffffff82111715610943576109426108ec565b5b80604052505050565b600061095661085a565b9050610962828261091b565b919050565b600067ffffffffffffffff821115610982576109816108ec565b5b61098b826108db565b9050602081019050919050565b82818337600083830152505050565b60006109ba6109b584610967565b61094c565b9050828152602081018484840111156109d6576109d56108d6565b5b6109e1848285610998565b509392505050565b600082601f8301126109fe576109fd6108d1565b5b8135610a0e8482602086016109a7565b91505092915050565b600080600060608486031215610a3057610a2f610864565b5b600084013567ffffffffffffffff811115610a4e57610a4d610869565b5b610a5a868287016109e9565b9350506020610a6b8682870161088f565b925050604084013567ffffffffffffffff811115610a8c57610a8b610869565b5b610a98868287016109e9565b9150509250925092565b610aab8161086e565b82525050565b6000602082019050610ac66000830184610aa2565b92915050565b600081519050919050565b600082825260208201905092915050565b60005b83811015610b06578082015181840152602081019050610aeb565b83811115610b15576000848401525b50505050565b6000610b2682610acc565b610b308185610ad7565b9350610b40818560208601610ae8565b610b49816108db565b840191505092915050565b600073ffffffffffffffffffffffffffffffffffffffff82169050919050565b6000610b7f82610b54565b9050919050565b610b8f81610b74565b82525050565b60008115159050919050565b610baa81610b95565b82525050565b600060a0820190508181036000830152610bca8188610b1b565b9050610bd96020830187610aa2565b610be66040830186610b86565b610bf36060830185610ba1565b8181036080830152610c058184610b1b565b90509695505050505050565b7f4e487b7100000000000000000000000000000000000000000000000000000000600052602260045260246000fd5b60006002820490506001821680610c5857607f821691505b602082108103610c6b57610c6a610c11565b5b50919050565b7f546869732070726f7065727479206973206e6f7420666f722073616c652e0000600082015250565b6000610ca7601e83610ad7565b9150610cb282610c71565b602082019050919050565b60006020820190508181036000830152610cd681610c9a565b9050919050565b7f596f75206e65656420746f20706179207468652066756c6c207072696365206f60008201527f66207468652070726f70657274792e0000000000000000000000000000000000602082015250565b6000610d39602f83610ad7565b9150610d4482610cdd565b604082019050919050565b60006020820190508181036000830152610d6881610d2c565b9050919050565b6000819050919050565b6000610d94610d8f610d8a84610b54565b610d6f565b610b54565b9050919050565b6000610da682610d79565b9050919050565b6000610db882610d9b565b9050919050565b610dc881610dad565b82525050565b6000606082019050610de36000830186610aa2565b610df06020830185610dbf565b610dfd6040830184610b86565b949350505050565b7f4e487b7100000000000000000000000000000000000000000000000000000000600052601160045260246000fd5b6000610e3f8261086e565b91507fffffffffffffffffffffffffffffffffffffffffffffffffffffffffffffffff8203610e7157610e70610e05565b5b600182019050919050565b6000608082019050610e916000830187610aa2565b8181036020830152610ea38186610b1b565b9050610eb26040830185610aa2565b610ebf6060830184610b86565b9594505050505056fea264697066735822122057817580fefef0b5df2a7625e5adf5543616c4f7d8b37fe95ddec971ed17c45564736f6c634300080d0033",
  "immutableReferences": {},
  "source": "pragma solidity ^0.8.0;\r\n\r\ncontract RealEstate {\r\n    \r\n    struct Property {\r\n        string location;\r\n        uint256 price;\r\n        address owner;\r\n        bool isForSale;\r\n        string image;\r\n    }\r\n    \r\n    mapping (uint256 => Property) public properties;\r\n    uint256 public propertyCounter;\r\n    \r\n    event NewProperty(uint256 propertyId, string location, uint256 price, address owner);\r\n    event TransferProperty(uint256 propertyId, address previousOwner, address newOwner);\r\n    \r\n    function addProperty(string memory _location, uint256 _price, string memory _image) public {\r\n        propertyCounter++;\r\n        properties[propertyCounter] = Property(_location, _price, msg.sender, true, _image);\r\n        emit NewProperty(propertyCounter, _location, _price, msg.sender);\r\n    }\r\n    \r\n    function buyProperty(uint256 _propertyId) public payable {\r\n        Property memory property = properties[_propertyId];\r\n        require(property.isForSale == true, \"This property is not for sale.\");\r\n        require(msg.value == property.price, \"You need to pay the full price of the property.\");\r\n        address payable previousOwner = payable(property.owner);\r\n        property.owner = msg.sender;\r\n        property.isForSale = false;\r\n        properties[_propertyId] = property;\r\n        previousOwner.transfer(msg.value);\r\n        emit TransferProperty(_propertyId, previousOwner, msg.sender);\r\n    }\r\n    \r\n}\r\n",
  "sourcePath": "C:\\Users\\USER\\desktop\\Real_chain\\contracts\\realestate.sol",
  "compiler": {
    "name": "solc",
    "version": "0.8.13+commit.abaa5c0e.Emscripten.clang"
  },
  "schemaVersion": "3.4.13",
  "updatedAt": "2023-05-10T13:33:22.014Z",
  "networkType": "ethereum",
  "devdoc": {
    "kind": "dev",
    "methods": {},
    "version": 1
  },
  "userdoc": {
    "kind": "user",
    "methods": {},
    "version": 1
  }
}